:020000040800F2
:1000000000500020B14F0008C5080008C7080008CC
:10001000C9080008CB080008CD080008000000004F
:10002000000000000000000000000000CF080008F1
:10003000D108000800000000D3080008D508000817
:10004000F94F0008F94F0008F94F0008F94F000870
:10005000F94F0008F94F0008F94F0008F94F000860
:10006000F94F0008F94F0008F94F0008F94F000850
:10007000F94F0008F94F0008F94F0008F94F000840
:10008000F94F0008F94F0008F94F0008F94F000830
:10009000DD080008F94F0008F94F0008F94F000883
:1000A000F94F0008F94F0008F94F0008F94F000810
:1000B000ED080008F94F0008F94F0008F94F000853
:1000C000F94F0008F94F0008F94F0008F94F0008F0
:1000D000F94F0008F94F0008F94F0008F94F0008E0
:1000E000F94F0008F94F0008F94F00080000000020
:1000F0000000000000000000000000000000000000
:0C01000000000000000000005FF808F1A3
:10010C0010B5054C237833B9044B13B10448AFF345
:10011C0000800123237010BD480200200000000065
:10012C000C61000808B5034B1BB103490348AFF33E
:10013C00008008BD000000004C0200200C6100088B
:10014C00034613F8012B002AFBD1181A013870470B
:10015C002DE9F04188B0002404940594069407948A
:10016C002A4B9A6942F010029A619A6902F01002C5
:10017C000092009A9A6942F020029A619A6902F000
:10018C0020020192019A9A6942F004029A619A69DA
:10019C0002F004020292029A9A6942F008029A61F1
:1001AC009B6903F008030393039B194E224642F20A
:1001BC00FF01304603F0F4FADFF85880224640F68F
:1001CC00FC71404603F0ECFA4FF400530493059491
:1001DC000125069504A9104803F0D4F940F2FC73EC
:1001EC000493059506940227079704A9404603F04B
:1001FC00C9F942F2FF03049305950694079704A9E5
:10020C00304603F0BFF908B0BDE8F08100100240A1
:10021C0000080140000C01400010014010B51446CC
:10022C004FF0FF3392B2024803F071FF204610BD2D
:10023C007402002010B50446FFF782FF4FF0FF3325
:10024C0082B22146014803F062FF10BD7402002007
:10025C0000B583B04FF0FF3301220DF107010748C1
:10026C0003F0BBFF9DF80700A0F13103DBB2082BB4
:10027C00F0D8303803B05DF804FB00BF74020020E6
:10028C00002109E001EB4100064A02442020D05431
:10029C000133022BF6DD0131022901DC0023F8E7E2
:1002AC00704700BF6402002030B59BB000251DE0F4
:1002BC000134022C11DC05EB45020F4B13441A5D83
:1002CC000E4901A804F0BCFF01A8FFF7B3FF012CF5
:1002DC00EEDC0B48FFF7AEFFEAE70A2004F04AFF1A
:1002EC00012D02DC0748FFF7A5FF0135022D01DCCB
:1002FC000024DEE71BB030BD64020020246100083E
:10030C002C61000830610008002307E02D4A0244EC
:10031C009278914210D1012070470133022B1BDCE3
:10032C0003EB430227498A5C202A05D003EB4300E8
:10033C00014449788A42E9D0224AD25C202AECD086
:10034C0020491944C9788A42E7D11E4A1A44927945
:10035C009142E2D1012070471A4B1B78202B03D01D
:10036C00184A1279934209D0164B9B78202B20D037
:10037C00144A1279934207D000210CE0114B1B7ADE
:10038C009A42F1D1012070470E4B9B799A4215D0BD
:10039C00002100E0013102290DDC0023022BF9DCE5
:1003AC0001EB4100074A0244D25C202A08D00133F9
:1003BC00F4E70021EFE74FF0FF3070470120704762
:1003CC00002070476402002038B500240EE00022A3
:1003DC00194B33F81410194803F0E2F90022184BAA
:1003EC0033F81410174803F0DBF90134082CEEDD58
:1003FC0000251CE00122104B33F815100F4803F0B8
:10040C00CFF90134082CF5DDC82002F0F7FC0024EC
:10041C0007E00022084B33F81510084803F0C0F928
:10042C000134082CF5DDC82002F0E8FC0135082D5C
:10043C0001DC0024E6E738BD000000200008014084
:10044C0014000020000C014038B500240EE00022FE
:10045C00194B33F81410194803F0A2F90022184B69
:10046C0033F81410174803F09BF90134082CEEDD17
:10047C0000251CE00122124B33F81510114803F033
:10048C008FF90134082CF5DDC82002F0B7FC0024EC
:10049C0007E000220A4B33F815100A4803F080F9E4
:1004AC000134082CF5DDC82002F0A8FC0135082D1C
:1004BC0001DC0024E6E738BD000000200008014004
:1004CC0014000020000C01402DE9F8434FF0000906
:1004DC0049E0DFF8A080284F012238F81410384684
:1004EC0003F05EF9254E264D012236F814102846ED
:1004FC0003F056F9642002F081FC002238F8141045
:10050C00384603F04DF9002236F81410284603F053
:10051C0047F90134082CDCDD082420E0DFF8548096
:10052C00154F012238F81410384603F039F9134EE0
:10053C00134D012236F81410284603F031F96420CB
:10054C0002F05CFC002238F81410384603F028F94D
:10055C00002236F81410284603F022F9013C002C36
:10056C00DCDA09F10109B9F1020F01DC0024D1E751
:10057C00BDE8F883000000200008014014000020B2
:10058C00000C014072B6FEE708B50A480A4B03603E
:10059C004FF41653436000238360C36003610C2245
:1005AC0042618361C36103F082FD00B908BDFFF7AE
:1005BC00E9FF00BF740200200038014000B58FB085
:1005CC0000230A930B930C930D93089309930193B7
:1005DC000293039304930593069307931C484FF0DF
:1005EC008042026041F61F42426083606422C26016
:1005FC000361836103F028FB00BB4FF480530A9323
:10060C000AA9134803F0E1FBD0B9114803F048FBE9
:10061C00C0B900230893099308A90D4803F054FCB2
:10062C0090B90022019202920392059201A9084806
:10063C0003F090FB50B90FB05DF804FBFFF7A2FF7D
:10064C00FFF7A0FFFFF79EFFFFF79CFFFFF79AFF56
:10065C00BC02002000B595B0282200210DEB020051
:10066C0004F0E8FE0023059306930793089309937F
:10067C00019302930393049301220A924FF4803363
:10068C000B930E920222119212934FF4E0131393D8
:10069C000AA802F0DDFBC0B90F23059302210691D5
:1006AC00002307934FF480620892099305A802F087
:1006BC0001FE60B9102301930023049301A802F0FA
:1006CC00D5FE30B915B05DF804FBFFF75BFFFFF703
:1006DC0059FFFFF757FF000070B594B002F06AFBAA
:1006EC00FFF7B8FFFFF734FDFFF74EFF00F07CF982
:1006FC00FFF764FF5C4C01225C49204603F0F1FDDE
:10070C005B4803F075F9204603F0D1FC18B9FFF7EC
:10071C00B7FD012517E0FFF735FF461E554B53F883
:10072C0026205549684604F08BFD6846FFF782FD8C
:10073C000122524B33F81610514803F031F823E0E4
:10074C00504804F075FDFFF7AFFD2A464E49684648
:10075C0004F076FD6846FFF76DFDFFF779FD044662
:10076C00012DDAD0461E494B53F8262048496846DD
:10077C0004F066FD6846FFF75DFD0122454B33F83A
:10078C001610454803F00CF84448FFF753FD601E63
:10079C00434B83FB0023A3EBE07303EB4302821A6E
:1007AC000828CDD803EB43003E490144895C20293D
:1007BC00C6D1012D34D04F2003EB430339490B44F0
:1007CC009854FFF7A1FD044601282BD0B0F1FF3F50
:1007DC003CD0012D42D00125012C02D0B4F1FF3FB9
:1007EC00B1D14C223049684604F099FE6846FFF7B7
:1007FC0021FDFFF72DFD012832D06C462B4D0FCD7E
:10080C000FC40FCD0FC40FCD0FC495E8030044F8EF
:10081C00040B21706846FFF70DFD002014B070BD6D
:10082C005820C9E7FFF740FD2A462149684604F0E5
:10083C0007FD6846FFF7FEFC012D03D0FFF704FE11
:10084C002546C9E7FFF7C0FD0225C5E7FFF72CFDDC
:10085C001848FFF7EFFCFFF737FEBAE70225BBE7B6
:10086C00FFF70EFD6FE700BF74020020700200203E
:10087C00BC0200204C000020686100080000002031
:10088C0000080140AC61000840610008280000200D
:10089C008861000814000020000C0140A8610008C9
:1008AC005655555564020020EC610008386200086A
:1008BC00C8610008DC610008FEE7FEE7FEE7FEE722
:1008CC00FEE770477047704708B502F085FA08BD1F
:1008DC0008B5024801F07CF808BD00BFE811002003
:1008EC0008B5024803F0BEF808BD00BFBC020020EA
:1008FC0082B00E4B9A6942F001029A619A6902F039
:10090C0001020092009ADA6942F08052DA61DB69E6
:10091C0003F080530193019B054A536823F0E06375
:10092C0043F08063536002B0704700BF0010024078
:10093C00000001400368B3F1804F00D0704700B550
:10094C0083B003F50433DA6942F00102DA61DB6942
:10095C0003F001030193019B002211461C2002F0BD
:10096C006BFF1C2002F078FF03B05DF804FB000065
:10097C0010B586B000230293039304930593026889
:10098C00174B9A4201D006B010BD03F558439A6933
:10099C0042F480429A619A6902F480420092009A71
:1009AC009A6942F004029A619B6903F00403019373
:1009BC00019B4FF4007302930223039303230593CB
:1009CC00084C02A9204602F0DDFD4FF4806302932F
:1009DC0000230393049302A9204602F0D3FDD2E72F
:1009EC00003801400008014008B500220F491048AA
:1009FC0003F08BFC70B90F490D4803F09DFC60B9F6
:100A0C000D490B4804F0A1FA50B9094803F09BFCBE
:100A1C0048B908BDFFF7B6FDEDE7FFF7B3FDEFE70B
:100A2C00FFF7B0FDF1E7FFF7ADFDF2E7A400002002
:100A3C0004030020A8010020C000002012230B801A
:100A4C00004870479000002004230B80004870473A
:100A5C008C000020002393421ED200B510E00CF154
:100A6C00370C01F813C000014FEA430C0CF1010CD8
:100A7C004FF0000E01F80CE00133DBB2934209D2C7
:100A8C004FEA107CB0F1204FE9D20CF1300C01F898
:100A9C0013C0E8E75DF804FB7047000038B50B4B5A
:100AAC00D3F8E807D3F8EC47D3F8F037C01800D1E7
:100ABC0038BD074D08222946FFF7CCFF042205F16B
:100ACC0010012046FFF7C6FFF2E700BF00F0FF1F42
:100ADC007200002008B51A230B80FFF7DFFF0148D6
:100AEC0008BD00BF7000002008B50A4628B90549AA
:100AFC00054804F080F8034808BD0249024804F098
:100B0C007AF8F8E7C80500207062000810B50A46AC
:100B1C00034C2146034804F06EF8204610BD00BF7C
:100B2C00C80500208862000808B50A4628B905499E
:100B3C00054804F060F8034808BD0249024804F077
:100B4C005AF8F8E7C80500209C62000808B50A4668
:100B5C0028B90549054804F04EF8034808BD024978
:100B6C00024804F048F8F8E7C8050020A86200081D
:100B7C00002070470020704710B50146044C2046F9
:100B8C0004F0F2F9204604F0F5F9002010BD00BF86
:100B9C000403002010B5064C00220649204604F040
:100BAC00DBF90549204604F0DFF9002010BD00BF39
:100BBC0004030020C8070020C80B0020022805D819
:100BCC00DFE800F0050402000120704702207047A6
:100BDC0002680E4B9A4200D0704700B583B003F503
:100BEC00DA33DA6942F40002DA61DB6903F40003F8
:100BFC000193019B00221146142002F01DFE1420CB
:100C0C0002F02AFE03B05DF804FB00BF005C00405C
:100C1C0008B500F52671D0F8D40203F0ACFB08BD82
:100C2C0008B501EB810300EBC303D3F86421D0F8C2
:100C3C00D40203F0CDFB08BD08B501EB810300EB3A
:100C4C00C3035A6AD0F8D40203F008FC08BD08B5F7
:100C5C00D0F8D40203F0A9FC08BD10B50446837982
:100C6C00022B09D10121D4F8D40203F087FCD4F86B
:100C7C00D40203F05BFC10BDFFF784FCF2E700002C
:100C8C0010B50446D0F8D40203F07BFCA37A23B150
:100C9C00024A136943F00603136110BD00ED00E036
:100CAC0008B5D0F8D40203F075FC08BD10B50446A5
:100CBC001D48C0F8D442C4F8C0021C4B0360082382
:100CCC0003710223837100238372C372037300F0D8
:100CDC0023F930BB182300221146D4F8C00201F0CE
:100CEC0092F8582300228021D4F8C00201F08BF82E
:100CFC00C02300228121D4F8C00201F084F84FF403
:100D0C00887300220121D4F8C00201F07CF84FF462
:100D1C00807300228221D4F8C00201F074F8002004
:100D2C0010BDFFF72FFCD5E7E8110020005C004058
:100D3C0008B5D0F8C00200F063F9FFF73FFF08BD1B
:100D4C0008B594461A466346D0F8C00200F018FF66
:100D5C00FFF734FF08BD08B5D0F8C00200F052FF11
:100D6C00FFF72CFF08BD08B5D0F8C00200F0CCFF8F
:100D7C00FFF724FF08BD08B5D0F8C00201F004F855
:100D8C00FFF71CFF08BDD0F8C03211F0800F08D15E
:100D9C0001F07F0101EB810103EBC10393F85201D8
:100DAC00704701F07F0101EB810103EBC103987CDB
:100DBC00704708B5D0F8C00200F0F7FDFFF7FEFE53
:100DCC0008BD08B5D0F8C00200F078FFFFF7F6FEBA
:100DDC0008BD08B5D0F8C00200F04AFFFFF7EEFEE0
:100DEC0008BD08B5D0F8C00200F05FFF08BD0000D8
:100DFC0000487047C80F00207047704738B512F490
:100E0C00804F44D00468B4F850309BB291F800C0C5
:100E1C0003EBCC03023304EB4304B4F80044C4F3F7
:100E2C0009048B69A34228D31B1B8B618B697BB98B
:100E3C00056835F82C309BB223F4804323F0700303
:100E4C0083F4005343F4004343F0800325F82C3023
:100E5C0012F0400F0ED002680D7832F825309BB29C
:100E6C0023F4E04323F0700343F4004343F0C00346
:100E7C0022F8253024B9204638BD00238B61D5E7F4
:100E8C0023460A894969006801F056FFF3E70468B4
:100E9C00B4F850309BB291F800C003EBCC0306338E
:100EAC0004EB4304B4F80044C4F309048B69A34273
:100EBC002FD31B1B8B618B697BB9056835F82C30E4
:100ECC009BB223F4804323F0700383F4005343F468
:100EDC00004343F0800325F82C3012F0400F0FD163
:100EEC00026891F800C032F82C309BB223F4E04336
:100EFC0023F0700343F4004343F0C00322F82C307A
:100F0C00002CB8D023464A894969006801F014FFC7
:100F1C00B1E700238B61CEE738B500286ED00446CC
:100F2C0090F89132A3B1032384F8913200236371BA
:100F3C00206800F094FF234653F8040B0ECB00F00E
:100F4C007EFF50B1022384F891320125284638BD2A
:100F5C0080F89032FFF73CFEE5E70021206800F0B6
:100F6C0088FF034608B9024615E0022384F8913243
:100F7C000125EBE702EB820104EBC101012048746F
:100F8C000A740020C87408624862013202EB8201C4
:100F9C00C9006050D2B220799042EBD816E003EB36
:100FAC00830204EBC202002182F8511182F8503105
:100FBC0082F85311C2F86011C2F8641103EB83027A
:100FCC0004EBC202C2F868110133DBB29842E6D8D6
:100FDC00234653F8040B0ECB00F04DFF054620B111
:100FEC00022384F891320125B0E7002363730123B7
:100FFC0084F89132206801F09DFAA7E70125A5E756
:10100C0038B590F89032012B11D00446012580F8A8
:10101C009052006800F01AFF29462046FFF7EDFEBB
:10102C00206801F085FA002084F8900238BD022077
:10103C00FCE770B505460C46164612F0400F00F062
:10104C000E810268B2F850309BB2097803EBC103F1
:10105C00023302EB4302B2F80024C2F30902A36983
:10106C0093424ED99B1AA361A369002B66D1637876
:10107C00002B49D12B68B3F8502092B2134403EBE8
:10108C000113B3F80424C2F30902A3F80424B3F83F
:10109C0004246FEA42426FEA524292B2A3F804244B
:1010AC002B686278002A3CD1B3F8502092B21344DA
:1010BC00227803EB0213B3F80C24C2F30902A3F851
:1010CC000C24B3F80C246FEA42426FEA524292B2FB
:1010DC00A3F80C2421782846FFF7AEFD16F4804FB8
:1010EC0041D02A68217832F821309BB223F4E043B6
:1010FC0023F0700343F4404343F0800322F8213083
:10110C0031E00023A361AFE7012BC9D12B68B3F801
:10111C00502092B2134403EB01130022A3F80424D1
:10112C00BEE7012AD6D1B3F8502092B213442278EC
:10113C0003EB02130022A3F80C24CBE716F4804F28
:10114C000DD0286830F821309BB223F4E04323F013
:10115C00700343F4404343F0800320F8213094F8AB
:10116C002430012B12D02A68217832F821309BB21E
:10117C0023F4E04323F0400383F0300343F40043B3
:10118C0043F0800322F82130002070BD63691344C2
:10119C006361E3691344E361216A2369994224D3AF
:1011AC00C91A21626278002A44D12A68B2F8501018
:1011BC0089B20A44217802EB0112B2F80414C1F38B
:1011CC000901A2F804143E2B1BD9580913F01F0F68
:1011DC0000D10138B2F8041489B2800280B2014304
:1011EC0041F40041A2F8041426E021B9002384F84C
:1011FC0024301346D6E7002384F8243023620B46B0
:10120C00D0E74BB9B2F804146FEA41416FEA51418F
:10121C0089B2A2F804140FE0590813F0010F00D0A2
:10122C000131B2F8040480B2890289B20143A2F8F8
:10123C00041401E0012A06D09BB222896169286856
:10124C0001F080F98FE72A68B2F8501089B20A448D
:10125C00217802EB011299B2A2F80414ECE70268AF
:10126C00B2F850309BB2097803EBC103063302EBA2
:10127C004302B2F80024C2F30902A36993424FD38C
:10128C009B1AA361A369002B67D16378002B4AD109
:10129C002B68B3F8502092B2134403EB0113B3F84C
:1012AC000424C2F30902A3F80424B3F804246FEA5B
:1012BC0042426FEA524292B2A3F804242B6862783D
:1012CC00002A3DD1B3F8502092B21344227803EB9C
:1012DC000213B3F80C24C2F30902A3F80C24B3F8DC
:1012EC000C246FEA42426FEA524292B2A3F80C24E9
:1012FC0021782846FFF7A0FC16F4804F7FF433AF1B
:10130C002A68217832F821309BB223F4E04323F091
:10131C00700343F4404343F0800322F8213022E76A
:10132C000023A361AEE7012BC8D12B68B3F8502082
:10133C0092B2134403EB01130022A3F80424BDE77B
:10134C00012AD5D1B3F8502092B21344227803EB82
:10135C0002130022A3F80C24CAE716F4804F0DD117
:10136C00286830F821309BB223F4E04323F070035B
:10137C0043F4404343F0800320F8213094F82430A8
:10138C00012B7FF4F0AE636913446361E36913448A
:10139C00E361216A2369994224D3C91A21622A681C
:1013AC006178002943D1B2F8501089B20A442178EF
:1013BC0002EB0112B2F80C14C1F30901A2F80C14DF
:1013CC003E2B1BD9580913F01F0F00D10138B2F86E
:1013DC000C1489B2800280B2014341F40041A2F89E
:1013EC000C1426E021B9002384F824301346D6E7E8
:1013FC000023236284F824300B46D0E74BB9B2F8B3
:10140C000C146FEA41416FEA514189B2A2F80C14F5
:10141C000FE0590813F0010F00D00131B2F80C04A1
:10142C0080B2890289B20143A2F80C1401E00129AF
:10143C0006D09BB262896169286801F083F892E654
:10144C00B2F8501089B20A44217802EB011299B219
:10145C00A2F80C14EDE72DE9F04105462868B0F828
:10146C00443013F4004F00F09D82B0F84440A3B216
:10147C0014F00F0440F0DE8013F0100F6BD00388D3
:10148C009AB213F4006F40F0998012F4004FE5D03B
:10149C00038823F070031B051B0D43F080030380AE
:1014AC002868B0F850309BB295F8502103EBC2037A
:1014BC00063300EB4303B3F80034C3F30903C5F858
:1014CC006C318BB1D5F8641171B1B5F8562101F0BE
:1014DC0033FCD5F86431D5F86C211344C5F864316C
:1014EC0000212846FFF79CFB2A68138899B213F455
:1014FC00006FB3D101F44051B1F5405FAED0B2F8FA
:10150C0050309BB21A44B2F80C34C3F30903A2F85E
:10151C000C34D5F860313E2B73D9590913F01F0FD9
:10152C0000D10139B2F80C349BB2890289B20B4359
:10153C0043F40043A2F80C342A6813889BB223F4BA
:10154C00804323F0700383F4405343F4004343F08F
:10155C008003138082E703889BB223F4E14323F0DA
:10156C0070036FEA43436FEA53439BB203802A68CC
:10157C00B2F850309BB2297C03EBC103023302EB6F
:10158C004302B2F80034C3F30903EB626A6A1A44EB
:10159C006A6200212846FFF74FFB6B7B002B3FF460
:1015AC005DAFAB6A002B7FF459AF6B7B2A6843F0BD
:1015BC008003A2F84C3000236B734FE7B0F8503027
:1015CC009BB295F8502103EBC203063300EB4303A7
:1015DC00B3F80034C3F30903C5F86C31B5F85621E0
:1015EC0005F5267101F0A8FB2A68138823F0700317
:1015FC001B051B0D43F0800313802846FFF708FBE7
:10160C002CE74BB9B2F80C346FEA43436FEA5343FF
:10161C009BB2A2F80C348FE7590813F0010F00D0DD
:10162C000131B2F80C3498B28B029BB20343A2F88E
:10163C000C3481E730F824309EB213F4004F50D1B3
:10164C0016F0800F3FF40AAF04EB8401C90010318F
:10165C0029442A6832F824309BB223F4E14323F066
:10166C0070036FEA43436FEA53439BB222F8243072
:10167C0004EB840305EBC303DB7C012B00F0F2804D
:10168C0016F4807F40F089812868B0F850309BB206
:10169C0004EB840205EBC202167C03EBC603023397
:1016AC0000EB4303B3F80034C3F30903621C02EBF1
:1016BC00820255F832209A4240F25281671C07EBA5
:1016CC008707D21A45F83720621C02EB820255F8C4
:1016DC003220002A40F04B8131462846FFF7ACFA05
:1016EC00BCE630F8243023F070031B051B0D43F0CF
:1016FC00800320F8243004EB8401C90001F5A871A3
:10170C0005EB010804EB840305EBC30393F85C3190
:10171C00002B42D12868B0F850309BB204EB840205
:10172C0005EBC20292F8502103EBC203063300EB27
:10173C004303B3F80074C7F3090717BB04EB840326
:10174C0005EBC303D3F86C213A44C3F86C21D3F8EE
:10175C0064213A44C3F86421D3F868313BB104EBFB
:10176C00840305EBC303D3F860319F4275D204EBBD
:10177C00840305EBC30393F850112846FFF750FA86
:10178C005EE704EB840105EBC1013B46B1F8562141
:10179C00D1F8641101F0D0FAD0E704EB840305EB27
:1017AC00C30393F85331022B35D0296804EB840220
:1017BC0005EBC20292F8500131F820309BB223F4B1
:1017CC00E04323F0700343F4004343F0C00321F8DB
:1017DC002030286892F8502130F8223013F4804FD2
:1017EC0020D0B0F850309BB203EBC203023300EBB5
:1017FC004303B3F80074C7F30907002F9ED004EB22
:10180C00840105EBC1013B46B1F85821D1F86411B4
:10181C0001F092FA92E7324641462846FFF7EEFA7B
:10182C0007468BE7B0F850309BB203EBC20306338C
:10183C0000EB4303B3F80074C7F30907002F3FF420
:10184C007DAF04EB840105EBC1013B46B1F85A2195
:10185C00D1F8641101F070FA70E74146286800F085
:10186C0084FEEDE6631C03EB8303DB000022EA50ED
:10187C0004EB840305EBC3031B7F1BB316F0400F73
:10188C003BD004EB840305EBC3035B7C1BBB2B68D5
:10189C00B3F8502092B2134404EB840205EBC2025D
:1018AC00127C03EB0213B3F80424C2F30902A3F86D
:1018BC000424B3F804246FEA42426FEA524292B213
:1018CC00A3F8042404EB840405EBC404217C28460F
:1018DC00FFF7B2F9C2E5012BF4D12B68B3F8502015
:1018EC0092B2134404EB840205EBC202127C03EBAC
:1018FC0002130022A3F80424E4E72B6804EB84020F
:10190C0005EBC202527CD2B9B3F8502092B2134408
:10191C0004EB840205EBC202127C03EB0213B3F856
:10192C000C24C2F30902A3F80C24B3F80C246FEABC
:10193C0042426FEA524292B2A3F80C24C2E7012A47
:10194C00C0D1B3F8502092B2134404EB840205EBDF
:10195C00C202127C03EB02130022A3F80C24B1E7A1
:10196C00621C02EB8202D2000027AF50ACE604EB03
:10197C00840205EBC202566A1E445662013404EB23
:10198C00840205EBC202526804EB840405EBC40428
:10199C001344636000F0E9FD60E532462846FFF72A
:1019AC0048FB5BE50020BDE8F08190F89032012BFC
:1019BC000CD010B50446012380F8903241730068B6
:1019CC0000F0B0FD002084F8900210BD022070479A
:1019DC0010B584B00446006800F0AEFD10F4004F62
:1019EC0020D110F4806F21D110F4804F2FD110F43E
:1019FC00005F37D110F4805F3ED110F4006F40F0DF
:101A0C00878010F4007F40F0AE8010F4807F27D0E8
:101A1C002268B2F844309BB223F480739BB2A2F8D4
:101A2C0044301DE02046FFF716FD19E02268B2F89D
:101A3C0044309BB223F480639BB2A2F8443020461E
:101A4C00FFF70BF900212046FFF7AFFF08E02268F3
:101A5C00B2F844309BB223F480439BB2A2F84430DA
:101A6C0004B010BD2268B2F844309BB223F400538A
:101A7C009BB2A2F84430F3E72268B2F840309BB234
:101A8C0023F004039BB2A2F840302268B2F8403035
:101A9C009BB223F008039BB2A2F840302046FFF71C
:101AAC00FFF82268B2F844309BB223F480539BB207
:101ABC00A2F84430D4E7226832F8231004AA02EBCF
:101ACC00430222F8101C0133DBB2072BF3D9226836
:101ADC00B2F840309BB243F00103A2F840302268C8
:101AEC00B2F840309BB223F001039BB2A2F8403015
:101AFC002368B3F8442012F4806FF9D0B3F8442073
:101B0C0092B222F4806292B2A3F8442000230BE03C
:101B1C000023DAE7226804A901EB430131F8101C19
:101B2C0022F823100133DBB2072BF3D92268B2F869
:101B3C0040309BB243F00803A2F840302268B2F860
:101B4C0044309BB223F400639BB2A2F84430226869
:101B5C00B2F840309BB243F00403A2F84030204668
:101B6C00FFF78EF87CE72268B2F844309BB223F47E
:101B7C0000739BB2A2F844302046FFF768F86FE779
:101B8C0010B50446084611F0800F26D101F0070C61
:101B9C000CEB8C0E4FEACE0E0EF5A87E04EB0E016C
:101BAC000CEB8C0C04EBCC0C4FF0000E8CF851E1D0
:101BBC0000F0070008700A61CB70022B1DD094F85E
:101BCC009032012B1CD0012384F89032206800F055
:101BDC0063F9002084F8900210BD01F0070C0CEBA7
:101BEC008C01C900103121440CEB8C0C04EBCC0C97
:101BFC004FF0010E8CF811E0DAE700230B71DEE7F1
:101C0C000220E9E710B504460A4611F0800F1FD1F7
:101C1C0001F0070000EB8003DB0003F5A873E1186B
:101C2C0000EB800004EBC000002380F8513102F07F
:101C3C0007020A7094F89032012B17D0012384F814
:101C4C009032206800F00DFB002084F8900210BD4B
:101C5C0001F0070000EB8003DB001033E11800EB10
:101C6C00800004EBC00001234374E0E70220EEE7A0
:101C7C0010B501F0070C0CEB8C01C90001F5A87133
:101C8C000CEB8C0E00EBCE0ECEF86421CEF8683146
:101C9C000024CEF86C418EF851418EF850C10144AD
:101CAC00006800F062FC204610BD01F0070101EB5A
:101CBC00810100EBC100D0F86C01704738B501F020
:101CCC00070C0CEB8C01C90010310CEB8C0E00EBEB
:101CDC00CE0ECEF824200CF1010202EB820440F867
:101CEC00343001258EF83450CEF8303000EBC4027D
:101CFC00002454608EF811508EF810C00144006816
:101D0C0000F033FC204638BD38B501F007050279E8
:101D1C00AA4235D304460B4611F0800F1ED101EBBD
:101D2C008101C90001F5A871014403EB830300EBA9
:101D3C00C303002283F8512101238B700D7094F89A
:101D4C009032012B1ED0012384F89032206800F0D1
:101D5C0073FB7DB1002084F8900238BD05EB850142
:101D6C00C9001031014405EB850300EBC3030122CC
:101D7C005A74E1E704F52671206800F0E1FBE9E70D
:101D8C000120EAE70220E8E70B46017903F00F0295
:101D9C00914234D310B5044613F0800F21D103F0D7
:101DAC00070202EB8201C90001F5A871014402EBA4
:101DBC00820200EBC202002082F8510100228A70DC
:101DCC0003F007030B7094F89032012B19D0012308
:101DDC0084F89032206800F054FB002084F89002C4
:101DEC0010BD03F0070202EB8201C900103101445F
:101DFC0002EB820200EBC20201205074DEE70120EC
:101E0C0070470220ECE711F0800F0BD001F00701B6
:101E1C0001EB8101C9001031084452B90273C3802F
:101E2C000020704701EB8101C90001F5A87108443D
:101E3C00F3E70122027303811B0C4381F0E784B0AA
:101E4C0004A800E90E00002004B0704703460020EF
:101E5C00A3F844004FF43F42A3F840207047B0F879
:101E6C00403023F47C535B045B0CA0F84030002022
:101E7C0070470020704784B0844604A800E90E0027
:101E8C000123ACF840300020ACF84000ACF8440022
:101E9C00ACF8500004B0704710B5034691F800C080
:101EAC0030F82C2092B222F4EC4222F0700292B262
:101EBC00C878032861D8DFE800F0555C0258002090
:101ECC0048F2800E42EA0E0223F82C2091F800C052
:101EDC0033F82C2092B222F4E04222F0700242EA53
:101EEC000C0242EA0E0223F82C200A7B002A40F056
:101EFC00DC804A78002A51D0B3F8502092B21A44B0
:101F0C000C7802EB0412B1F806C04FEA5C0C4FEAF5
:101F1C004C0CA2F800C40C7833F8242012F0400FBB
:101F2C000CD033F8242092B222F4E04222F070025A
:101F3C0042F4004242F0C00223F82420CA78012A5D
:101F4C001DD0097833F8212092B222F4E04222F01D
:101F5C00400282F0200242F4004242F0800223F858
:101F6C00212017E142F40072AAE742F4C06200207B
:101F7C00A6E742F480620020A2E70120A0E70978DE
:101F8C0033F8212092B222F4E04222F0400242F4D3
:101F9C00004242F0800223F82120FBE0B3F85020ED
:101FAC0092B21A440C7802EB0412B1F806C04FEA54
:101FBC005C0C4FEA4C0CA2F808C4B3F8502092B257
:101FCC001A440C7802EB0412B2F80CC4CCF3090CD2
:101FDC00A2F80CC40C693E2C39D94FEA541E14F0EB
:101FEC001F0F01D10EF1FF3EB2F80CC41FFA8CFC8E
:101FFC004FEA8E2E1FFA8EFE4CEA0E0C4CF4004C5F
:10200C00A2F80CC40C7833F8242012F4804F0CD0B6
:10201C0033F8242092B222F4E04222F0700242F40F
:10202C00404242F0800223F82420097869BB33F83F
:10203C00212092B222F4804222F0700282F44052AB
:10204C0042F4004242F0800223F82120A2E04CB975
:10205C00B2F80C446FEA44446FEA5444A4B2A2F8B8
:10206C000C44CFE74FEA540C14F0010F01D00CF1E3
:10207C00010CB2F80C44A4B24FEA8C2C1FFA8CFC65
:10208C0044EA0C04A2F80C44BCE733F8212092B2C9
:10209C0022F4804222F0700282F4005242F4004298
:1020AC0042F0800223F8212074E0CA78022A72D010
:1020BC000C7833F8242092B222F4E24222F070021F
:1020CC0042F4004242F0800223F82420B3F850205E
:1020DC0092B21A4491F800C002EB0C12B1F808C08D
:1020EC004FEA5C0C4FEA4C0CA2F800C4B3F8502039
:1020FC0092B21A4491F800C002EB0C12B1F80AC06B
:10210C004FEA5C0C4FEA4C0CA2F808C44A78002A3F
:10211C0050D10C7833F8242012F4804F0CD033F8C3
:10212C00242092B222F4E04222F0700242F44042A7
:10213C0042F0800223F824200C7833F8242012F08B
:10214C00400F0CD033F8242092B222F4E04222F05B
:10215C00700242F4004242F0C00223F8242091F8AD
:10216C0000C033F82C2092B222F4804222F070028C
:10217C0082F4405248F28004224323F82C20097840
:10218C0033F8212092B222F4E04222F040022243A2
:10219C0023F8212010BD0C7833F8242092B222F4BD
:1021AC00E04222F0700242F4014242F0800223F835
:1021BC0024208BE70C7833F8242012F4804F0CD0B9
:1021CC0033F8242092B222F4E04222F0700242F45E
:1021DC00404242F0800223F824200C7833F824206B
:1021EC0012F0400F0CD033F8242092B222F4E042CB
:1021FC0022F0700242F4004242F0C00223F8242084
:10220C00CA78012A1ED00C7833F8242092B222F41A
:10221C00E04222F0400282F0200242F4004242F0FE
:10222C00800223F82420097833F8212092B222F47A
:10223C00804222F0700242F4004242F0800223F805
:10224C002120A7E70C7833F8242092B222F4E04244
:10225C0022F0400242F4004242F0800223F8242093
:10226C00E1E70B7B002B46D14B7813B30A7830F89F
:10227C00223013F0400F0CD030F822309BB223F4F4
:10228C00E04323F0700343F4004343F0C00320F811
:10229C0022300A7830F822309BB223F4E04323F04A
:1022AC00400343F4004343F0800320F82230002025
:1022BC0070470A7830F8223013F4804F0CD030F885
:1022CC0022309BB223F4E04323F0700343F44043E9
:1022DC0043F0800320F822300A7830F822309BB289
:1022EC0023F4804323F0700343F4004343F0800352
:1022FC0020F82230DBE74B78002B4ED10A7830F8EF
:10230C00223013F4804F0CD030F822309BB223F4DF
:10231C00E04323F0700343F4404343F0800320F880
:10232C0022300A7830F8223013F0400F0CD030F8FD
:10233C0022309BB223F4E04323F0700343F40043B8
:10234C0043F0C00320F822300A7830F822309BB2D8
:10235C0023F4E04323F0700343F4004343F0C00341
:10236C0020F822300A7830F822309BB223F48043D4
:10237C0023F0700348F2800C43EA0C0320F822305F
:10238C000A7830F822309BB223F4E04323F0400368
:10239C0043EA0C0320F8223089E70A7830F822301F
:1023AC0013F4804F0CD030F822309BB223F4E0436E
:1023BC0023F0700343F4404343F0800320F82230B1
:1023CC000A7830F8223013F0400F0CD030F822305D
:1023DC009BB223F4E04323F0700343F4004343F037
:1023EC00C00320F822300A7830F822309BB223F454
:1023FC00E04323F0700343F4404343F0800320F8A0
:10240C0022300A7830F822309BB223F4E04323F0D8
:10241C00400348F2800C43EA0C0320F822300A787F
:10242C0030F822309BB223F4804323F0700343EA4C
:10243C000C0320F822303AE74B788BB10A7830F84D
:10244C0022309BB223F4E04323F0400383F01003CB
:10245C0043F4004343F0800320F8223000207047FF
:10246C000A7830F822309BB223F4804323F07003B7
:10247C0083F4805343F4004343F0800320F822306C
:10248C00ECE70B7B002B4BD14B7833B30A7830F84D
:10249C00223013F0400F0CD030F822309BB223F4D2
:1024AC00E04323F0700343F4004343F0C00320F8EF
:1024BC002230CB78012B33D00A7830F822309BB203
:1024CC0023F4E04323F0400383F0200343F4004360
:1024DC0043F0800320F8223022E00A7830F82230D2
:1024EC0013F4804F0CD030F822309BB223F4E0432D
:1024FC0023F0700343F4404343F0800320F8223070
:10250C000A7830F822309BB223F4804323F0700316
:10251C0083F4405343F4004343F0800320F822300B
:10252C000020704711B98023A0F84C300020704770
:10253C000020704700207047B0F8440080B270470C
:10254C000020704701335B0800EB420000F580600F
:10255C0008E00A7891F801C042EA0C2220F8042B1A
:10256C000231013B002BF4D1704770B505460C4687
:10257C004A78012A3BD00B7B002B40F0A6828B695A
:10258C000A69934240F284829B1A8B61B5F85030F1
:10259C009BB22B44217803EB0113B3F80C14C1F359
:1025AC000901A3F80C143E2A40F27682510912F06C
:1025BC001F0F00D10139B3F80C2492B2890289B2F1
:1025CC000A4342F40042A3F80C24227835F8223056
:1025DC009BB223F4804323F0700383F4405343F401
:1025EC00004343F0800325F82230002070BD8E6933
:1025FC0009698E4200D90E46237B73B3E378022B14
:10260C004DD0236A9B1B2362217835F8213013F0BF
:10261C00400F00F0F581002A40F0E281B5F850300F
:10262C009BB22B4403EB0113B3F80C24C2F3090245
:10263C00A3F80C243E2E40F2BA81710916F01F0F3C
:10264C0000D10139B3F80C2492B2890289B20A4341
:10265C0042F40042A3F80C24CBE1B6B23346E28834
:10266C0061692846FFF76EFFB5F850309BB22B44DA
:10267C00227803EB0213A3F80464227835F8223095
:10268C009BB223F4E04323F0400383F0300343F484
:10269C00004343F0800325F822300020A6E7236A8C
:1026AC00994280F06681227835F822309BB223F46F
:1026BC00E04323F0700343F4014343F0800325F817
:1026CC002230236A9B1B2362227835F8223013F0C8
:1026DC00400F00F0A7806378B3BBB5F850309BB2C5
:1026EC002B4403EB0213B3F80C24C2F30902A3F836
:1026FC000C243E2E0FD9710916F01F0F00D1013991
:10270C00B3F80C2492B2890289B20A4342F4004213
:10271C00A3F80C241AE04EB9B3F80C246FEA424229
:10272C006FEA524292B2A3F80C240FE0720816F032
:10273C00010F00D00132B3F80C1489B2920292B29C
:10274C000A43A3F80C2401E0012B30D0B3B2628908
:10275C0061692846FFF7F6FE636933446361236AB7
:10276C00226993422DD99B1B23626378002B45D1A0
:10277C00B5F850309BB22B44227803EB0213B3F81C
:10278C000424C2F30902A3F804243E2E1DD97109B6
:10279C0016F01F0F00D10139B3F8042492B289024C
:1027AC0089B20A4342F40042A3F8042428E0B5F8A5
:1027BC0050309BB22B4403EB0213B2B2A3F80C249F
:1027CC00C4E7002222621E46CFE74EB9B3F80424B8
:1027DC006FEA42426FEA524292B2A3F804240FE02D
:1027EC00720816F0010F00D00132B3F8041489B24C
:1027FC00920292B20A43A3F8042401E0012B06D002
:10280C00B3B2228961692846FFF79CFE35E7B5F81B
:10281C0050309BB22B44227803EB0213B2B2A3F8D4
:10282C000424EDE76378B3BBB5F850309BB22B446E
:10283C0003EB0213B3F80424C2F30902A3F8042433
:10284C003E2E0FD9710916F01F0F00D10139B3F8C4
:10285C00042492B2890289B20A4342F40042A3F8DA
:10286C0004241AE04EB9B3F804246FEA42426FEA2A
:10287C00524292B2A3F804240FE0720816F0010F32
:10288C0000D00132B3F8041489B2920292B20A4316
:10289C00A3F8042401E0012B30D0B3B22289616982
:1028AC002846FFF74FFE636933446361236A22694C
:1028BC0093422DD99B1B23626378002B45D1B5F82D
:1028CC0050309BB22B44227803EB0213B3F80C2448
:1028DC00C2F30902A3F80C243E2E1DD9710916F07F
:1028EC001F0F00D10139B3F80C2492B2890289B2BE
:1028FC000A4342F40042A3F80C2428E0B5F8503007
:10290C009BB22B4403EB0213B2B2A3F80424C4E72A
:10291C00002222621E46CFE74EB9B3F80C246FEAB0
:10292C0042426FEA524292B2A3F80C240FE07208B2
:10293C0016F0010F00D00132B3F80C1489B29202D8
:10294C0092B20A43A3F80C2401E0012B06D0B3B2D7
:10295C00628961692846FFF7F5FD8EE6B5F85030BF
:10296C009BB22B44227803EB0213B2B2A3F80C24D3
:10297C00EDE7217835F8212092B222F4E24222F0E0
:10298C00700242F4004242F0800225F82120B5F892
:10299C00502092B22A44217802EB01129BB2A2F889
:1029AC000434228961692846FFF7CCFD65E64EB9EF
:1029BC00B3F80C246FEA42426FEA524292B2A3F887
:1029CC000C2416E0720816F0010F00D00132B3F897
:1029DC000C1489B2920292B20A43A3F80C2408E0B8
:1029EC00B5F850309BB22B4403EB0113B2B2A3F8F1
:1029FC000C24B3B2628961692846FFF7A3FD3CE65B
:102A0C00B2BBB5F850309BB22B4403EB0113B3F8B7
:102A1C000424C2F30902A3F804243E2E0FD9710931
:102A2C0016F01F0F00D10139B3F8042492B28902B9
:102A3C0089B20A4342F40042A3F8042421E04EB9BF
:102A4C00B3F804246FEA42426FEA524292B2A3F8FE
:102A5C00042416E0720816F0010F00D00132B3F80E
:102A6C00041489B2920292B20A43A3F8042408E037
:102A7C00B5F850309BB22B4403EB0113B2B2A3F860
:102A8C000424B3B2228961692846FFF75BFDF4E5A3
:102A9C0000228A611A4679E54AB9B3F80C246FEA28
:102AAC0042426FEA524292B2A3F80C248DE55108CF
:102ABC0012F0010F00D00131B3F80C2492B289024C
:102ACC0089B20A43A3F80C247FE5CB78022B4DD0B6
:102ADC00012B40F02F8189692369994240F2E680ED
:102AEC00C91AA161F2B9B5F8502092B22A442178E2
:102AFC0002EB0112B2F80414C1F30901A2F8041498
:102B0C003E2B40F2D780580913F01F0F00D101382B
:102B1C00B2F8041489B2800280B2014341F400413E
:102B2C00A2F804146278002A40F0F680B5F8502020
:102B3C0092B22A44217802EB0112B2F80C14C1F3C0
:102B4C000901A2F80C143E2B40F2CD80590913F068
:102B5C001F0F00D10139B2F80C349BB2890289B233
:102B6C000B4343F40043A2F80C342EE5F2B9B0F851
:102B7C0050309BB203440A7803EB0213B3F80424DD
:102B8C00C2F30902A3F804240A693E2A31D9510977
:102B9C0012F01F0F00D10139B3F8042492B289024C
:102BAC0089B20A4342F40042A3F804246378002B50
:102BBC0051D1B5F850309BB22B44227803EB021361
:102BCC00B3F80C24C2F30902A3F80C2422693E2AA0
:102BDC0028D9510912F01F0F00D10139B3F80C2478
:102BEC0092B2890289B20A4342F40042A3F80C243F
:102BFC0033E04AB9B3F804246FEA42426FEA524216
:102C0C0092B2A3F80424D1E7510812F0010F00D0BE
:102C1C000131B3F8042490B28A0292B20243A3F8B1
:102C2C000424C3E74AB9B3F80C246FEA42426FEAB2
:102C3C00524292B2A3F80C240FE0510812F0010F8B
:102C4C0000D00131B3F80C2490B28A0292B2024344
:102C5C00A3F80C2401E0012B1DD0E369002B3FF4F9
:102C6C00B4AC227835F8221044F2400303EA010098
:102C7C008B4302D000287FF4A8AC35F822309BB2ED
:102C8C0023F4E04323F0700343F4004343F0C00308
:102C9C0025F8223099E4B5F850309BB22B442278B9
:102CAC0003EB0213228AA3F80C24D6E70023A361BA
:102CBC000B4617E74BB9B2F804146FEA41416FEABF
:102CCC00514189B2A2F804142CE7590813F0010FF2
:102CDC0000D00131B2F8040480B2890289B20143F8
:102CEC00A2F804141EE74BB9B2F80C346FEA434354
:102CFC006FEA53439BB2A2F80C3466E4590813F004
:102D0C00010F00D00131B2F80C3498B28B029BB297
:102D1C000343A2F80C3458E4012A7FF456ACB5F8FE
:102D2C00502092B22A44217802EB01129BB2A2F8F5
:102D3C000C344AE4012059E410B45C0800EB420066
:102D4C0000F5806007E030F8042B0A70C2F307220C
:102D5C004A700231013C002CF5D113F0010F01D067
:102D6C0003880B7010BC704710B504460E4B1A78D4
:102D7C004FF47A73B3FBF2F30C4A1068B0FBF3F028
:102D8C0000F078FD68B90F2C01D901200AE000226F
:102D9C0021464FF0FF3000F04FFD054B1C6000202A
:102DAC0000E0012010BD00BFD0000020D8000020A2
:102DBC00D400002008B5074A136843F010031360D1
:102DCC00032000F027FD0F20FFF7CEFFFDF790FD4D
:102DDC00002008BD00200240034A1168034B1B78F9
:102DEC000B441360704700BFC0140020D0000020BB
:102DFC00014B1868704700BFC014002038B504465A
:102E0C00FFF7F6FF0546B4F1FF3F02D0044B1B78E9
:102E1C001C44FFF7EDFF401BA042FAD338BD00BFA6
:102E2C00D000002082B0084B1B68084AA2FB032389
:102E3C005B0A00FB03F3019300BF019B5A1E019236
:102E4C00002BF9D102B07047D8000020D34D62108E
:102E5C00002800F0F18170B582B00446036813F0CD
:102E6C00010F2CD0994B5B6803F00C03042B1DD085
:102E7C00964B5B6803F00C03082B12D06368B3F518
:102E8C00803F41D0002B55D103F1804303F504332F
:102E9C001A6822F480321A601A6822F480221A60AE
:102EAC0037E08A4B5B6813F4803FE7D0874B1B6895
:102EBC0013F4003F03D06368002B00F0BF8123683C
:102ECC0013F0020F75D0814B5B6813F00C0F5FD0C1
:102EDC007E4B5B6803F00C03082B54D02369002B4A
:102EEC0000F08A807A4B01221A60FFF781FF0546B9
:102EFC00764B1B6813F0020F75D1FFF779FF401B5F
:102F0C000228F5D903209EE1704A136843F48033FC
:102F1C001360636843B3FFF76BFF05466B4B1B688D
:102F2C0013F4003FCBD1FFF763FF401B6428F5D9A6
:102F3C00032088E1B3F5A02F09D0644B1A6822F462
:102F4C0080321A601A6822F480221A60E1E703F1D9
:102F5C008043A3F53C331A6842F480221A601A6845
:102F6C0042F480321A60D4E7FFF742FF0546574B14
:102F7C001B6813F4003FA2D0FFF73AFF401B6428F4
:102F8C00F5D903205FE1514B5B6813F4803FA5D169
:102F9C004E4B1B6813F0020F03D02369012B40F03A
:102FAC004F814A4A136823F0F803616943EAC1036D
:102FBC001360236813F0080F33D0A369002B5CD087
:102FCC00434B0122C3F88024FFF712FF05463F4B09
:102FDC005B6A13F0020F21D1FFF70AFF401B022896
:102FEC00F5D903202FE1394A136823F0F8036169FE
:102FFC0043EAC1031360DCE7354B00221A60FFF78C
:10300C00F7FE0546314B1B6813F0020FD1D0FFF7CA
:10301C00EFFE401B0228F5D9032014E10120FFF735
:10302C0001FF236813F0040F00F09680274BDB6937
:10303C0013F0805F34D1254BDA6942F08052DA61AB
:10304C00DB6903F080530193019B0125214B1B6825
:10305C0013F4807F26D0E368012B3DD0002B53D195
:10306C0003F1804303F504331A6A22F001021A6259
:10307C001A6A22F004021A6233E0154B0022C3F8DC
:10308C008024FFF7B5FE0546104B5B6A13F0020F68
:10309C00C7D0FFF7ADFE401B0228F5D90320D2E0C4
:1030AC000025D3E70B4A136843F480731360FFF7D2
:1030BC009FFE0646074B1B6813F4807FCBD1FFF7AE
:1030CC0097FE801B6428F5D90320BCE00010024059
:1030DC0000004242007000405F4A136A43F0010353
:1030EC001362E36833B3FFF783FE06465A4B1B6A41
:1030FC0013F0020F2FD1FFF77BFE801B41F28833B8
:10310C009842F3D903209EE0052B09D0524B1A6A42
:10311C0022F001021A621A6A22F004021A62E0E733
:10312C004D4B1A6A42F004021A621A6A42F001020A
:10313C001A62D6E7FFF75CFE0646474B1B6A13F094
:10314C00020F08D0FFF754FE801B41F288339842DF
:10315C00F3D9032077E0E5B9E369002B72D03E4A3E
:10316C00526802F00C02082A56D0022B17D03B4BA7
:10317C0000221A66FFF73CFE0446374B1B6813F01F
:10318C00007F47D0FFF734FE001B0228F5D903203F
:10319C0059E0314AD36923F08053D361DCE72F4BDC
:1031AC0000221A66FFF724FE05462B4B1B6813F012
:1031BC00007F06D0FFF71CFE401B0228F5D9032028
:1031CC0041E0236AB3F5803F1AD023494B6823F4BE
:1031DC007413226A606A024313434B601F4B012233
:1031EC001A66FFF705FE04461B4B1B6813F0007FA5
:1031FC000ED1FFF7FDFD001B0228F5D9032022E0BC
:10320C00154A536823F40033A1680B435360DCE781
:10321C00002018E0002016E0012B16D00E4B5B6846
:10322C0003F48031226A914211D103F47013626A63
:10323C0093420ED1002006E001207047012002E0ED
:10324C00012000E0002002B070BD0120FBE701204E
:10325C00F9E70120F7E700BF0010024000004242EE
:10326C000F4B5B6803F00C02082A01D00D48704725
:10327C00C3F383420C49885C13F4803F0BD0084B9A
:10328C005B68C3F34043094AD35C064A02FB00F077
:10329C00B0FBF3F07047064B03FB00F0704700BF28
:1032AC000010024000127A00BC620008B8620008EC
:1032BC0000093D00002800F0A08070B50D460446C2
:1032CC00524B1B6803F007038B420BD24F4A136817
:1032DC0023F007030B431360136803F007038B42BF
:1032EC0040F08D80236813F0020F17D013F0040FF9
:1032FC0004D0474A536843F4E0635360236813F0E7
:10330C00080F04D0424A536843F460535360404A58
:10331C00536823F0F003A1680B435360236813F048
:10332C00010F31D06368012B20D0022B25D0384AF5
:10333C00126812F0020F64D035494A6822F0030279
:10334C0013434B60FFF754FD0646314B5B6803F0AB
:10335C000C036268B3EB820F16D0FFF749FD801B9C
:10336C0041F288339842F0D9032045E0284A12688C
:10337C0012F4003FE0D101203EE0254A126812F021
:10338C00007FD9D1012037E0204B1B6803F00703E5
:10339C00AB420AD91D4A136823F007032B43136071
:1033AC00136803F00703AB422DD1236813F0040F0D
:1033BC0006D0174A536823F4E063E1680B4353606B
:1033CC00236813F0080F07D0114A536823F4605395
:1033DC00216943EAC1035360FFF742FF0C4B5B6862
:1033EC00C3F303130B4AD35CD8400B4B18600B4B45
:1033FC001868FFF7B9FC002070BD01207047012050
:10340C00FAE70120F8E70120F6E700BF00200240B0
:10341C0000100240D4620008D8000020D400002024
:10342C00014B1868704700BFD800002008B5FFF7A3
:10343C00F7FF044B5B68C3F30223034AD35CD84009
:10344C0008BD00BF00100240CC62000808B5FFF7B1
:10345C00E7FF044B5B68C3F3C223034AD35CD84039
:10346C0008BD00BF00100240CC62000870B582B0ED
:10347C000446036813F0010F36D03F4BDB6913F0A1
:10348C00805F49D13C4BDA6942F08052DA61DB69EA
:10349C0003F080530193019B0125384B1B6813F4F7
:1034AC00807F3BD0344B1B6A13F4407313D062689B
:1034BC0002F440729A420ED02F4A136A23F44070E1
:1034CC002F490126C1F840640026C1F840641062FF
:1034DC0013F0010F36D1284A136A23F44073616844
:1034EC000B431362002D3ED1236813F0020F06D05C
:1034FC00214A536823F44043A1680B43536023686B
:10350C0013F0100F34D01C4A536823F48003E16885
:10351C000B43536000202CE00025BEE7174A1368CC
:10352C0043F480731360FFF763FC0646134B1B6870
:10353C0013F4807FB6D1FFF75BFC801B6428F5D9B0
:10354C00032016E0FFF754FC06460B4B1B6A13F0E6
:10355C00020FC0D1FFF74CFC801B41F2883398421C
:10356C00F3D9032005E0D36923F08053D361BBE783
:10357C00002002B070BD00BF00100240007000407F
:10358C000000424270B582B00024A446A1E07E4DFA
:10359C00AB4214D00CD8A5F58015AB420FD005F575
:1035AC007025AB420BD0A5F58015AB4210D106E0CF
:1035BC00764DAB4203D005F58035AB4208D18B6814
:1035CC00002B50D0012B49D04261082400E0CC687C
:1035DC00BEF1FF0F49D806464FEA8C0233680F251F
:1035EC00954023EA050304FA02F2134333604B6857
:1035FC0013F0805F6BD0664B9A6942F001029A61BE
:10360C009B6903F001030193019B4FEA9C02951CFB
:10361C00604B53F825600CF00305AD000F23AB4055
:10362C0026EA03065C4B984226D003F58063984249
:10363C0000F08C8003F58063984200F0898003F5DC
:10364C008063984216D0042317E0CC680434BFE79B
:10365C00CC680834BCE7CC680C34B9E702610824A8
:10366C00B6E70024B4E70424B2E7061DACF1080267
:10367C009200B3E7032300E00023AB403343023254
:10368C00444D45F822304B6813F4801F62D0434AF6
:10369C00936843EA0E0393604B6813F4001F5FD0EA
:1036AC003E4AD36843EA0E03D3604B6813F4003FE1
:1036BC005CD03A4A536843EA0E0353604B6813F4E8
:1036CC00803F59D0354A136843EA0E0313600CF15E
:1036DC00010C0B6833FA0CF254D0012202FA0CF2F2
:1036EC0003EA020E32EA0303F1D14B68122B3FF6C8
:1036FC004EAF122B3FF66CAF01A555F823F000BF6F
:10370C00CB350008DB3500085D3600086F36000845
:10371C00DD350008DD350008DD350008DD35000835
:10372C00DD350008DD350008DD350008DD35000825
:10373C00DD350008DD350008DD350008DD35000815
:10374C00DD3500085736000863360008012394E77E
:10375C00022392E7114A936823EA0E0393609BE7D6
:10376C000E4AD36823EA0E03D3609EE70B4A5368D4
:10377C0023EA0E035360A1E7084A136823EA0E03F9
:10378C001360A4E702B070BD0000221000003110DD
:10379C0000100240000001400008014000040140FC
:1037AC000AB101617047090401617047002808DB08
:1037BC000901C9B200F1604000F5614080F80013C6
:1037CC00704700F00F000901C9B2014B1954704742
:1037DC0014ED00E000B500F00700C0F1070CBCF1DF
:1037EC00040F28BF4FF0040C031D062B0FD9C31E6A
:1037FC004FF0FF3E0EFA0CF021EA000199400EFA50
:10380C0003FE22EA0E0241EA02005DF804FB0023EB
:10381C00EEE70000074AD36823F4E0631B041B0C9B
:10382C00000200F4E060034343F0BF6343F4003351
:10383C00D360704700ED00E010B50446054BD86826
:10384C00C0F30220FFF7C6FF01462046FFF7AEFF8C
:10385C0010BD00BF00ED00E0002807DB00F01F02E8
:10386C00400901239340024A42F82030704700BFC0
:10387C0000E100E00138B0F1807F0BD24FF0E02383
:10388C005861054AF02182F8231000209861072224
:10389C001A6170470120704700ED00E030B4026AF5
:1038AC00036A23F0010303624568836923F0730301
:1038BC000C681C4322F002028B6813430B4A9042A3
:1038CC0006D0456084614A684263036230BC70472D
:1038DC0023F00803CA681A4322F0040325F4407548
:1038EC004A692A438D691543EBE700BF002C014060
:1038FC0030B4036A026A22F4807202624468C269BC
:10390C0022F073020D68154323F400738A6843EAAE
:10391C0002230D4A904206D04460C5614A68C263D6
:10392C00036230BC704723F40063CA6843EA022385
:10393C0023F4806324F440544A6944EA02148A69EB
:10394C0044EA0214E8E700BF002C014030B4036ADB
:10395C00026A22F4805202624468C26922F4E6428E
:10396C000D6842EA052223F400538D6843EA0533BF
:10397C00074DA84206D04460C2614A6802640362E3
:10398C0030BC704724F480444D6944EA8514F2E756
:10399C00002C014010B4036A046A24F00104046290
:1039AC00846924F0F00C4CEA021223F00A030B4356
:1039BC008261036210BC704710B4036A046A24F07D
:1039CC0010040462846924F4704C4CEA023223F033
:1039DC00A00343EA01138261036210BC7047836841
:1039EC0023F070030B4343F0070383607047000020
:1039FC0090F83D30DBB2012B27D1022380F83D300B
:103A0C000268D36843F00103D3600368114A934200
:103A1C0010D0B3F1804F0DD0A2F59432934209D05F
:103A2C0002F58062934205D01A6842F001021A60D6
:103A3C00002070479A6802F00702062A07D01A681D
:103A4C0042F001021A6000207047012070470020EC
:103A5C00704700BF002C014070477047704770479B
:103A6C007047704770B504460368DE681D6915F031
:103A7C00020F10D016F0020F0DD06FF002021A6177
:103A8C000123037703689B6913F0030F5ED0FFF7E4
:103A9C00E6FF0023237715F0040F12D016F0040F65
:103AAC000FD023686FF004021A6102232377236876
:103ABC009B6913F4407F4FD02046FFF7D0FF0023C3
:103ACC00237715F0080F12D016F0080F0FD02368CB
:103ADC006FF008021A61042323772368DB6913F063
:103AEC00030F40D02046FFF7BAFF0023237715F0D1
:103AFC00100F12D016F0100F0FD023686FF01002B9
:103B0C001A61082323772368DB6913F4407F31D0D3
:103B1C002046FFF7A4FF0023237715F0010F02D0F6
:103B2C0016F0010F2DD115F0800F02D016F0800F7A
:103B3C002FD115F0400F02D016F0400F31D115F0F7
:103B4C00200F02D016F0200F33D170BDFFF786FF87
:103B5C002046FFF785FF9CE72046FFF77FFF2046B6
:103B6C00FFF77EFFABE72046FFF778FF2046FFF715
:103B7C0077FFBAE72046FFF771FF2046FFF770FF8B
:103B8C00C9E723686FF001021A612046FFF765FF51
:103B9C00C9E723686FF080021A61204600F0CBF968
:103BAC00C7E723686FF040021A612046FFF759FF00
:103BBC00C5E723686FF020021A61204600F0BAF9BD
:103BCC00C3E7000003681F4A90420AD0B0F1804F4F
:103BDC0007D0A2F59432904203D002F58062904255
:103BEC0003D123F070034A681343164A90420AD05B
:103BFC00B0F1804F07D0A2F59432904203D002F579
:103C0C008062904203D123F44073CA68134323F0BB
:103C1C0080034A69134303608B68C3620B68836239
:103C2C00084B98420AD001234361036913F0010F3A
:103C3C0003D0036923F00103036170470B6903632D
:103C4C00F1E700BF002C014040B310B5044690F8DA
:103C5C003D30F3B1022384F83D30214651F8040B7A
:103C6C00FFF7B0FF012384F8463084F83E3084F827
:103C7C003F3084F8403084F8413084F8423084F886
:103C8C00433084F8443084F8453084F83D300020CB
:103C9C0010BD80F83C30FCF74DFEDBE7012070478F
:103CAC0040B310B5044690F83D30F3B1022384F8CC
:103CBC003D30214651F8040BFFF784FF012384F8B3
:103CCC00463084F83E3084F83F3084F8403084F835
:103CDC00413084F8423084F8433084F8443084F81E
:103CEC00453084F83D30002010BD80F83C30FFF7A3
:103CFC00B3FEDBE70120704730B4036A026A22F09E
:103D0C00100202624468826922F4E6420D6842EABB
:103D1C00052223F020038D6843EA05130C4DA842BD
:103D2C0006D0446082614A688263036230BC70478B
:103D3C0023F08003CD6843EA051323F0400324F4F9
:103D4C0040644D6944EA85048D6944EA8504E8E7DA
:103D5C00002C014090F83C30012B28D010B50446C3
:103D6C00012380F83C300C2A1CD8DFE802F0071B3A
:103D7C001B1B0C1B1B1B111B1B1B16000068FFF7CE
:103D8C008DFD00200FE00068FFF7B6FF00200AE071
:103D9C000068FFF7ADFD002005E00068FFF7D6FDD9
:103DAC00002000E00120002384F83C3010BD0220EC
:103DBC00704710B4846824F47F4C42EA03220A430F
:103DCC0042EA0C02826010BC704790F83C30012B28
:103DDC0078D010B50446012380F83C30022380F8DB
:103DEC003D300268936823F47F4323F0770393609C
:103DFC000B68602B4CD023D8402B54D011D8202BDF
:103E0C0003D00AD80BB1102B05D119462068FFF747
:103E1C00E6FD002028E0012026E0302BF5D0012023
:103E2C0022E0502B0AD1CA6849680068FFF7B2FD3E
:103E3C0050212068FFF7D3FD002015E0012013E08E
:103E4C00B3F5805F3AD0B3F5005F14D0702B37D147
:103E5C00CB684A6889680068FFF7ABFF22689368F3
:103E6C0043F0770393600020012384F83D30002356
:103E7C0084F83C3010BDCB684A6889680068FFF74D
:103E8C0098FF2268936843F4804393600020EBE72B
:103E9C00CA6849680068FFF78FFD60212068FFF74A
:103EAC009EFD0020E0E7CA6849680068FFF772FDD4
:103EBC0040212068FFF793FD0020D5E70020D3E7D1
:103ECC000120D1E70220704790F83C20012A2CD029
:103EDC0010B40346012280F83C20022280F83D20D9
:103EEC0002685068946820F0700C086840EA0C0076
:103EFC0050601A680E4882420AD0B2F1804F07D047
:103F0C00A0F59430824203D000F58060824204D147
:103F1C0024F08004496821439160012283F83D20FC
:103F2C00002083F83C0010BC70470220704700BF93
:103F3C00002C014070477047026802F10C0353E8F3
:103F4C00003F23F490730C3242E800310029F3D186
:103F5C00026802F1140353E8003F23F0010314320A
:103F6C0042E800310029F3D1036B012B05D020234B
:103F7C0080F84230002303637047026802F10C039F
:103F8C0053E8003F23F010030C3242E800310029C3
:103F9C00F3D1ECE710B504460268136923F44053DF
:103FAC00C1680B43136183680269134342691A4366
:103FBC000168CB6823F4B05323F00C031343CB609C
:103FCC000268536923F4407381690B43536102689F
:103FDC00134B9A4220D0FFF729FA024602EB8202D9
:103FEC0002EB820263689B00B2FBF3F20D48A0FB6C
:103FFC0002314909642303FB11231B013233A0FB5B
:10400C0003035B0903F0F00202EB011203F00F0350
:10401C00216813448B6010BDFFF718FA0246DDE7E8
:10402C00003801401F85EB512DE9F04383B0054664
:10403C000E4617469946DDF828802B681C6836EA30
:10404C0004040CBF01240024BC4228D1B8F1FF3F6A
:10405C00F3D0FEF7CDFEA0EB0900404523D8B8F114
:10406C00000F22D02B68DA6812F0040FE5D0802EF6
:10407C00E3D0402EE1D01A6812F0080FDDD00024F6
:10408C0001941A6801925B680193019B2846FFF723
:10409C0053FF08236B6485F84040012000E00020AA
:1040AC0003B0BDE8F0830320FAE70320F8E760B320
:1040BC0010B5044690F8413013B3242384F84130F2
:1040CC002268D36823F40053D3602046FFF762FFC5
:1040DC002268136923F4904313612268536923F017
:1040EC002A0353612268D36843F40053D360002041
:1040FC006064202384F8413084F84230606310BD42
:10410C0080F84030FCF734FCD7E7012070472DE9EC
:10411C00F04182B01E4690F84130DBB2202B56D1D4
:10412C0004460D469046002955D00AB901204FE0AF
:10413C0000234364212380F84130FEF759FE0746E3
:10414C00A4F82480A4F82680A368B3F5805F02D07D
:10415C004FF0000814E023692BB34FF000080FE078
:10416C00202384F84130032032E038F8023B2268E7
:10417C00C3F308035360E28C92B2013A92B2E28428
:10418C00E38C9BB293B100963B46002280212046E3
:10419C00FFF74AFF0028E3D1002DE6D015F8012BDC
:1041AC0023685A60E7E7A8460025E9E700963B46F6
:1041BC00002240212046FFF737FF18B9202384F84E
:1041CC00413005E0202384F84130032000E0022038
:1041DC0002B0BDE8F0810120FAE72DE9F04182B090
:1041EC001E4690F84230DBB2202B59D104460D46C6
:1041FC009046002958D00AB9012052E000234364AC
:10420C00222280F842200363FEF7F2FD0746A4F851
:10421C002C80A4F82E80A368B3F5805F02D04FF0F9
:10422C0000081CE0236913B14FF0000817E0A84602
:10423C00002514E0202384F84230032031E0236869
:10424C005B68C3F3080328F8023B03E023685B6850
:10425C002B700135E28D92B2013A92B2E285E38D78
:10426C009BB2C3B100963B46002220212046FFF7AB
:10427C00DBFE0028DED1002DE1D0A368B3F5805F12
:10428C00E4D013B92369002BE0D023685B6803F0FA
:10429C007F032B70DDE7202384F84230002000E000
:1042AC00022002B0BDE8F0810120FAE7816282852C
:1042BC00C28500234364222380F84230036923B172
:1042CC000268D36843F48073D3600268536943F087
:1042DC00010353610268D36843F02003D3600020CC
:1042EC00704708B590F84230DBB2202B08D149B1A9
:1042FC000AB9012008BD00230363FFF7D7FFF9E7D4
:10430C000220F7E70120F5E7704798B108B503469E
:10431C00D0F8B40210B10020C3F8B40209B1C3F84C
:10432C00B012012183F89C121A701846FCF7BEFCDF
:10433C00002008BD0220704719B1C0F8B41200204B
:10434C0070470220704708B5FCF7F2FC002008BD4E
:10435C0008B5D0F8B4322BB11B68984700B908BD2A
:10436C000220FCE70220FAE708B5D0F8B4325B680B
:10437C009847002008BD38B5044600F52A75284634
:10438C0000F035F90123C4F89432B4F8AE32C4F815
:10439C00983294F8A81201F01F03012B08D0022BBD
:1043AC000BD07BB92946204600F0D0FA002038BD4E
:1043BC002946204600F0FEFAF8E72946204600F090
:1043CC0029FBF3E701F080012046FCF7CCFCEDE77C
:1043DC0038B504460D4691BB1346D0F89422032AF7
:1043EC0003D0052A24D0084633E0D0F86011D0F869
:1043FC00642191420DD9891AC0F860118A4206D9FC
:10440C008AB21946204600F037FC284621E092B2C9
:10441C00F7E7D0F8B4321B691BB190F89C22032A41
:10442C0004D0204600F030FC284612E09847F8E70C
:10443C000021C0F89412FCF796FC284609E0D0F84D
:10444C00B4329B6933B190F89C22032A04D198476B
:10445C00002038BD0220FCE70220FAE738B50446FC
:10446C000D46002953D11346D0F89422022A0CD0C1
:10447C00042A00D01AB980212046FCF774FC94F869
:10448C00A032012B3ED0284638BD026A416A8A42CE
:10449C001BD8C269B2FBF1F301FB13232BB9914278
:1044AC0003D8D0F898329A421CD3D4F8B432DB68D3
:1044BC001BB194F89C22032A21D080212046FCF7C2
:1044CC0052FC204600F0EBFBD9E7521A026292B282
:1044DC00194600F0BAFB00231A4619462046FCF791
:1044EC0078FCCCE70022114600F0AFFB0021C4F8A9
:1044FC0098120B460A462046FCF76BFCBFE7204699
:10450C009847DAE7002384F8A0322846BCE7D0F8B5
:10451C00B4325B6933B190F89C22032A04D19847DA
:10452C000020B1E70220AFE70220ADE770B50446EA
:10453C00402300221146FCF703FC0125C4F8585116
:10454C004026C4F864613346002280212046FCF7E3
:10455C00F7FBA561666284F89C520023C4F8943280
:10456C006360C4F8A432D4F8B8322BB1D4F8B432A6
:10457C005B68002120469847002070BD0174002024
:10458C00704790F89C3280F89D32042380F89C325E
:10459C000020704790F89C32042B01D0002070470B
:1045AC0090F89D3280F89C32F8E708B590F89C3270
:1045BC00032B01D0002008BDD0F8B432DB69002BEE
:1045CC00F8D09847F6E70346002002E00130C0B26D
:1045DC0001331A78002AF9D1704708B54B88012BA2
:1045EC0000D008BDC0F8A43200F04EFBF9E70B7800
:1045FC0003704B7843708B78CA7803EB02234380AB
:10460C000B794A7903EB022383808B79CA7903EB0C
:10461C000223C380704710B504468021FCF7A3FB2E
:10462C0000212046FCF79FFB10BD30B583B005463A
:10463C000C460023ADF806304A88130A013B062BC2
:10464C0000F2A480DFE803F004182CA2A2869300E9
:10465C00D0F8B0321B680DF10601007C9847BDF80C
:10466C0006201AB1E388002B40F09480E388002BDD
:10467C0000F09A8003B030BD037C43B9D0F8B4325B
:10468C009B6A0DF10600984702234370E7E7D0F8C8
:10469C00B432DB6A0DF10600984702234370DEE763
:1046AC00D2B2052A52D8DFE802F003101D2A374493
:1046BC00D0F8B0325B6823B10DF10601007C98474D
:1046CC00CDE72146FFF7A7FFD4E7D0F8B0329B68BF
:1046DC0023B10DF10601007C9847C0E72146FFF796
:1046EC009AFFC7E7D0F8B032DB6823B10DF10601B1
:1046FC00007C9847B3E72146FFF78DFFBAE7D0F867
:10470C00B0321B6923B10DF10601007C9847A6E776
:10471C002146FFF780FFADE7D0F8B0325B6923B1DB
:10472C000DF10601007C984799E72146FFF773FFCE
:10473C00A0E7D0F8B0329B6923B10DF10601007CE3
:10474C0098478CE72146FFF766FF93E72146FFF772
:10475C0062FF8FE7037C33B9D0F8B4325B6B0DF199
:10476C00060098477BE72146FFF755FF82E7037C5D
:10477C0043B9D0F8B4321B6B0DF1060098470723F0
:10478C0043706CE72146FFF746FF73E72146FFF7BE
:10479C0042FF6FE79A4228BF1A46ADF80620014641
:1047AC00284600F045FA61E7284600F06DFA61E70B
:1047BC0038B504468B88F3B9CB88E3B94B887F2B8B
:1047CC0019D803F07F0590F89C32032B0CD080F89D
:1047DC009E522946FCF7EDFA204600F055FA35B109
:1047EC00022384F89C3209E0FFF715FF06E0012351
:1047FC0084F89C3202E02046FFF70DFF38BD000024
:10480C0038B504460D468978284B197001290ED805
:10481C0090F89C32022B0ED0032B21D02946FFF7A7
:10482C00FAFE224B19782046FFF79EFD02E029463E
:10483C00FFF7F1FE38BD81B14160032380F89C3253
:10484C00FFF786FD022803D0204600F01DFAF1E7A1
:10485C0029462046FFF7DFFEECE700F015FAE9E702
:10486C0089B1436899421DD0D9B2FFF77DFD0F4B3A
:10487C00197861602046FFF76BFD02280DD02046A9
:10488C0000F002FAD6E7022380F89C324160FFF771
:10489C006BFD204600F0F8F9CCE729462046FFF7DF
:1048AC00BAFEC7E700F0F0F9C4E700BFC41400205B
:1048BC0008B5CB88012B0AD190F89C32022B09D970
:1048CC00032B11D10122011D00F0B2F901E0FFF719
:1048DC00A2FE08BD5BB23BB10146002341F8083F84
:1048EC00012200F0A5F9F4E7FFF795FEF1E708B512
:1048FC0090F89C32013B022B12D8CB88022B0CD1A6
:10490C000123C360D0F8A4320BB10323C36002228D
:10491C0000F10C0100F08CF908BDFFF77CFEFBE701
:10492C00FFF779FEF8E708B590F89C32013B022BB3
:10493C0009D84B88012B00D008BD0023C0F8A43245
:10494C0000F0A2F9F8E7FFF766FEF5E708B50B787B
:10495C0003F06003202B05D0402B03D043B1FFF7AD
:10496C005AFE03E0D0F8B4329B689847002008BD8B
:10497C004B78092B1BD8DFE803F011171A141A080F
:10498C00051A0E0BFFF751FEF0E7FFF711FFEDE7ED
:10499C00FFF736FFEAE7FFF78BFFE7E7FFF7A7FF25
:1049AC00E4E7FFF71AFEE1E7FFF7BDFFDEE7FFF7ED
:1049BC0032FEDBE738B505460C460B7803F0600396
:1049CC00202B06D0402B04D01BB1FFF724FE002077
:1049DC0038BD95F89C32013B022B16D82379012B5C
:1049EC000ED8D5F8B4329B68214628469847E38800
:1049FC00002BECD10028EAD1284600F045F9E6E777
:104A0C0021462846FFF707FEE1E721462846FFF737
:104A1C0002FEDCE770B505468B880C7804F0600468
:104A2C00202C07D0DAB2402C04D05CB1FFF7F3FD98
:104A3C00002405E0D5F8B4329B682846984700243A
:104A4C00204670BD202C09D04E78012E33D0032E79
:104A5C000AD0002E55D0FFF7DEFDF1E7D0F8B432C6
:104A6C009B6898470446EBE790F89C32022B04D0E5
:104A7C00032B11D0FFF7CFFDE2E70AB1802A03D157
:104A8C002846FFF7C8FDDBE71146FCF76CF98021DF
:104A9C002846FCF768F9D3E74B8823B91AB1802A6A
:104AAC0001D0CB881BB1284600F0EEF8C8E71146C0
:104ABC00FCF759F9F7E790F89C32022B04D0032B42
:104ACC0011D0FFF7A8FDBBE70AB1802A03D1284615
:104ADC00FFF7A1FDB4E71146FCF745F98021284604
:104AEC00FCF741F9ACE74B88002BA9D112F07F0FF2
:104AFC0003D1284600F0C8F8A2E71146FCF73BF9B1
:104B0C00F7E790F89C02022806D0032829D0284603
:104B1C00FFF781FD344693E70AB1802A13D113F0D5
:104B2C00800F15D102F07F0202EB8202910001F599
:104B3C00A8712944043100230B600222284600F09E
:104B4C0077F834467CE72846FFF765FD344677E76F
:104B5C0002F07F0202EB82029100103129440431F1
:104B6C00E9E75BB2002B1FDB02F00F0000EB8000CB
:104B7C0005EB8000D0F8580120B3002B27DB02F0A6
:104B8C007F0303EB83039C0004F5A8742C440434CA
:104B9C000AB1802A24D10023236002222146284610
:104BAC0000F046F834464BE702F00F0000EB8000B3
:104BBC0005EB800080690028DFD12846FFF72BFD2C
:104BCC0034463DE72846FFF726FD344638E702F029
:104BDC007F0303EB83039C0010342C440434D7E78D
:104BEC0011462846FCF7CFF810B101232360D4E717
:104BFC0000232360D1E7D0B170B50D4616460446AC
:104C0C00FFF7E1FC431C5B009BB233802B7003234A
:104C1C006B70022307E001345A1CD2B2E854023301
:104C2C00DBB20021A95420780028F4D170BD704764
:104C3C0008B513460222C0F89422C36103620A46E7
:104C4C000021FCF7BEF8002008BD08B513460A4643
:104C5C000021FCF7B6F8002008BD08B51346032266
:104C6C00C0F89422C0F85C31C0F860310A460021CB
:104C7C00FCF7AFF8002008BD08B513460A46002122
:104C8C00FCF7A7F8002008BD08B50423C0F894323F
:104C9C0000231A461946FCF794F8002008BD08B505
:104CAC000523C0F8943200231A461946FCF791F8F4
:104CBC00002008BD10B5D0F8B842D0F8BC325BB1BA
:104CCC0094F80002FF2807D09B6894F80122214633
:104CDC009847FF2384F80032002010BD4323038043
:104CEC000048704720010020432303800048704790
:104CFC00640100204323038000487047DC0000203F
:104D0C000A23038000487047E001002038B50446B0
:104D1C00D0F8B852FCF765F8C5F80C02D4F8B832E4
:104D2C004BB1D4F8BC32DB6805F50371D5F804023D
:104D3C009847002038BD0220FCE710B5D0F8B82207
:104D4C00D0F8C042F2B101EB810300EB8303DB69C5
:104D5C004BB101EB810C04EBCC04246AB3FBF4FCE7
:104D6C0004FB1C3323B10023C2F81432002010BD05
:104D7C0001EB810300EB83030022DA611346FCF79D
:104D8C0020F8F3E70220F2E7F0B583B006460C46B4
:104D9C00D0F8B87200238DF80730ADF804300B78DA
:104DAC0013F0600527D0202D53D1CA88DAB113F047
:104DBC00800F0CD0D0F8BC329B683946607898478D
:104DCC00E28839463046FFF733FF002544E04B7844
:104DDC0087F800328B7987F80132CA883946FFF799
:104DEC003CFF002538E0D0F8BC329B6800224878A4
:104DFC009847002530E04F780A2F10D00B2F1CD08D
:104E0C001FBB90F89C32032B03D0FFF704FC022548
:104E1C0022E0022201A9FFF70BFF3D461CE090F8AF
:104E2C009C32032B03D0FFF7F6FB022514E0012282
:104E3C000DF10701FFF7FCFE0EE090F89C32032BFE
:104E4C000AD0FFF7E8FB022506E0FFF7E4FB02259A
:104E5C0002E0FFF7E0FB0225284603B0F0BD38B5B1
:104E6C0004468121FBF777FF0025E56201212046EE
:104E7C00FBF771FFC4F86C5182212046FBF76BFFE6
:104E8C002564D4F8B8324BB1D4F8BC325B6898477F
:104E9C00D4F8B802FBF7B0FFC4F8B852002038BD04
:104EAC0070B50446037CABBB4FF400730222812126
:104EBC00FBF746FF0125E5624FF4007302222946F9
:104ECC002046FBF73DFFC4F86C51082303228221D6
:104EDC002046FBF735FF012323644FF40770FBF7E3
:104EEC0087FF0546C4F8B80268B3D4F8BC321B6817
:104EFC0098470023C5F81432C5F81832267CCEB971
:104F0C004FF40073D5F8042201212046FBF761FF12
:104F1C00304670BD402302228121FBF711FF012591
:104F2C00E5624023022229462046FBF709FFC4F81C
:104F3C006C51CAE74023D5F8042201212046FBF727
:104F4C0048FF0026E4E70126E2E719B1C0F8BC12DD
:104F5C000020704702207047D0F8B832C3F808120E
:104F6C00C3F8102200207047D0F8B832C3F80412EE
:104F7C0000207047D0F8B82292B108B5037C43B931
:104F8C004FF40073D2F804220121FBF722FF00201A
:104F9C0008BD4023D2F804220121FBF71AFFF6E7E3
:104FAC0002207047FFF7B0F90B480C490C4A00235C
:104FBC0002E0D458C4500433C4188C42F9D3094AC3
:104FCC00094C002301E013600432A242FBD300F031
:104FDC007FFAFBF781FB704700000020480200209D
:104FEC00286300084802002018160020FEE7000085
:104FFC00002310B50446C0E90033C0E904338360D4
:10500C0081814366C2818361194608225C3000F0BD
:10501C0011FA0D4B246263620C4BA3620C4BE362DE
:10502C000C4B23630C4B9C4206D003F16802944258
:10503C0002D0D0339C4205D104F15800BDE8104099
:10504C0000F06ABA10BD00BF91520008B3520008BC
:10505C00EB5200080F530008C8140020024A034901
:10506C00034800F069B800BFEC010020055E0008A1
:10507C00FC01002041680C4B10B59942044601D04C
:10508C0000F0BAFEA168094B994202D0204600F00C
:10509C00B3FEE168064B994204D02046BDE81040AF
:1050AC0000F0AABE10BD00BFC814002030150020AF
:1050BC009815002010B50B4B0B4C0C4A20461A606F
:1050CC0004210022FFF794FF04F16800012209215A
:1050DC00FFF78EFF04F1D0000222BDE81040122130
:1050EC00FFF786BF00160020C81400206950000886
:1050FC00014800F012BA00BF09160020014800F068
:10510C000DBA00BF0916002010B50446FFF7F0FFDA
:10511C00236A1BB1BDE81040FFF7F0BF044B2362BC
:10512C00044B1B68002BF5D1FFF7C4FFF2E700BF5F
:10513C0081500008001600202DE9F84307468846E8
:10514C0014460026D4E90195B9F1010905D5246866
:10515C00002CF7D13046BDE8F883AB89012B07D979
:10516C00B5F90E30013303D029463846C047064303
:10517C006835E9E7024B01461868826800F0C5BE45
:10518C00F8010020036A70B505460E4684680BB919
:10519C00FFF7BAFF636EDB0705D4A389980502D429
:1051AC00A06D00F0BAF9A389190702D52369002B69
:1051BC0035D12146284600F0E7F880B34FF0FF3593
:1051CC00636EDA0705D4A3899B0502D4A06D00F0A9
:1051DC00A5F9284670BD002B04DAA2699A4217DCA7
:1051EC000A2915D023685A1C22601970A36816F876
:1051FC00011F013BA3600029EDD1002B11DA2246DF
:10520C000A21284600F081F80130D7D00A25D7E7CB
:10521C002246284600F079F80130E7D1CEE7013E6E
:10522C00E4E723685A1C22600A221A70EEE7000099
:10523C00024B01461868FFF7A5BF00BFF80100201C
:10524C000EB46FF0004110B500249DB01FAB02905E
:10525C000690079104910948094953F8042B0591CC
:10526C00006802A901931B9400F0BAFA029B1C700F
:10527C001DB0BDE8104003B0704700BFF80100201E
:10528C000802FFFF10B50C46B1F90E1000F0FCF847
:10529C000028ABBF636DA3891B1823F48053ACBFEC
:1052AC006365A38110BD2DE9F0411F468B8905462E
:1052BC00DB050C46164605D502230022B1F90E106B
:1052CC0000F0D0F8A389324623F48053A3812846FA
:1052DC003B46B4F90E10BDE8F04100F0E7B810B54C
:1052EC000C46B1F90E1000F0BDF8431CA38915BF94
:1052FC00606523F4805343F48053A38118BFA381CA
:10530C0010BDB1F90E1000F09DB8F8B50E4614465C
:10531C00054618B1036A0BB9FFF7F6FEA369A36043
:10532C00A3891A0701D5236943B92146284600F001
:10533C002BF818B14FF0FF373846F8BD23682269B7
:10534C00F6B2981A63693746834205DC2146284633
:10535C0000F052FD0028EDD1A368013BA360236847
:10536C005A1C22601E706269431C9A4204D0A389A5
:10537C00DB07E1D50A2EDFD12146284600F03CFDA3
:10538C000028D9D0D6E7000038B5294B0546186857
:10539C000C4618B1036A0BB9FFF7B6FEB4F90C3022
:1053AC00190722D4DA0607D409222A6043F04003F5
:1053BC004FF0FF30A38133E0580712D5616B41B138
:1053CC0004F14403994202D0284600F0B7F80023B8
:1053DC006363A38923F02403A381002363602369FF
:1053EC002360A38943F00803A38123694BB9A389E4
:1053FC0003F42073B3F5007F03D02146284600F058
:10540C0048FDB4F90C3013F001020AD00022A2605E
:10541C0062695242A261226942B913F08000C5D17F
:10542C0038BD990758BF6269A260F4E70020F7E71E
:10543C00F801002003460244934200D1704703F860
:10544C00011BF9E738B50023054D044608462B60CF
:10545C0000F020FE431C02D12B6803B1236038BD41
:10546C000416002038B50446084611460022054DA6
:10547C002A601A4600F026FE431C02D12B6803B1A9
:10548C00236038BD0416002038B504460846114682
:10549C000022054D2A601A4600F01CFE431C02D166
:1054AC002B6803B1236038BD0416002038B50446C0
:1054BC00084611460022054D2A601A46FAF7AEFE40
:1054CC00431C02D12B6803B1236038BD04160020A5
:1054DC0070B500260C4D0D4C641BA410A64209D1CE
:1054EC0000F00EFE00260A4D0A4C641BA410A642C6
:1054FC0005D170BD55F8043B98470136EEE755F8D9
:10550C00043B98470136F2E720630008206300084B
:10551C0020630008246300087047704770470A44F2
:10552C00914200F1FF3300D1704710B511F8014BD7
:10553C00914203F8014FF9D110BD000038B5054672
:10554C00002940D051F8043C0C1F002BB8BFE418C4
:10555C0000F0DEF81C4A136833B963601460284607
:10556C00BDE8384000F0DAB8A34208D92068211809
:10557C008B4201BF19685B6809182160EDE71A4678
:10558C005B680BB1A342FAD911685018A0420BD139
:10559C0020680144501883421160E0D118685B68A0
:1055AC00084410605360DAE702D90C232B60D6E76D
:1055BC00206821188B4201BF19685B6809182160AB
:1055CC0063605460CBE738BD1016002070B50F4EE9
:1055DC000C463168054611B900F008FD30602146D3
:1055EC00284600F003FD431C03D14FF0FF34204646
:1055FC0070BDC41C24F00304A042F8D0211A284624
:10560C0000F0F4FC0130F2D1EFE700BF0C160020E3
:10561C002DE9F843CD1C25F0030508350C2D38BFBA
:10562C000C25002D064601DBA94204D90C2333605E
:10563C000020BDE8F883DFF8D48000F069F8D8F8D2
:10564C0000301C4644BB29463046FFF7BFFF431CC5
:10565C00044658D1D8F800402746002F43D1002CDF
:10566C004BD023683946304604EB030900F0BEFCEE
:10567C00814542D1216830466D1A2946FFF7A6FFB5
:10568C0001303AD023682B442360D8F800305A6894
:10569C0062BBC8F800700FE02268521B20D40B2AA2
:1056AC0017D96119A342256018BF5960636808BFF8
:1056BC00C8F8001062514B60304600F02FF804F12E
:1056CC000B00231D20F00700C21A1CBF1B1AA3508D
:1056DC00AFE76268A3420CBFC8F800205A60EBE742
:1056EC0023466468AEE73C467F68B6E71A465B68BB
:1056FC00A342FBD100235360DEE70C23304633601A
:10570C0000F00CF894E70560D6E700BF10160020F7
:10571C000148FFF702BF00BF081600200148FFF741
:10572C00FDBE00BF081600202DE9F0471F468E680D
:10573C008246BE420C4690460B682DD8B1F90C201F
:10574C0012F4906F26D06569096905EB4505A3EB4A
:10575C00010905EBD5757B1C4B446D109D4238BF80
:10576C001D46530527D52946FFF752FF064660B361
:10577C004A462169FFF7D3FEA38923F4906343F0D3
:10578C008003A38126614E4426603E466561A5EBED
:10579C000905A560BE4200D93E4632464146206806
:1057AC0000F0E7FB0020A3689B1BA3602368334435
:1057BC002360BDE8F0872A4600F036FC0646002838
:1057CC00E0D150462169FFF7B9FE0C23CAF800302E
:1057DC00A3894FF0FF3043F04003A381E9E70000B9
:1057EC002DE9F04F98468B8907461B060D4614464B
:1057FC009DB010D50B6973B94021FFF709FF2860E4
:10580C00286130B90C233B604FF0FF301DB0BDE870
:10581C00F08F40236B610023099320238DF82930EE
:10582C0030234FF00109CDF80C80DFF898818DF80A
:10583C002A3023469A4613F8012B0AB1252AF9D1AE
:10584C00BAEB040B0BD05B46224629463846FFF7D1
:10585C006BFF013000F0A780099A5A4409929AF81C
:10586C000030002B00F09F8000234FF0FF32CDE979
:10587C0005230AF1010A049307938DF853301A9308
:10588C005446052214F8011B4E4800F0BFFB049A45
:10589C00D8B9D00644BF20238DF85330110744BF2C
:1058AC002B238DF853309AF800302A2B15D0544600
:1058BC0000204FF00A0C079A214611F8013B303BAF
:1058CC00092B4BD9B0B1079214E0A0EB080309FAED
:1058DC0003F31343A2460493D2E7039B191D1B68E1
:1058EC000391002BBBBF5B4242F00202079307936C
:1058FC00B8BF049223782E2B0AD163782A2B32D18D
:10590C00039B02341A1D1B68039243EAE37305934D
:10591C00DFF8B4A003225046217800F077FB38B1B1
:10592C004022049BA0EB0A008240134301340493F1
:10593C0014F8011B062225488DF8281000F066FB90
:10594C00002836D0224B1BBB039B073323F00703E5
:10595C0008330393099B334409936AE70C460120EF
:10596C000CFB0232A8E700234FF00A0C1946013455
:10597C000593204610F8012B303A092A03D9002B45
:10598C00C6D00591C4E7044601230CFB0121F0E7C6
:10599C0003AB00932A4638460E4B04A9AFF30080A4
:1059AC00421C0646D6D1AB895B063FF52DAF099854
:1059BC002CE703AB00932A463846064B04A900F0AB
:1059CC007DF8EDE7E4620008EA620008EE62000888
:1059DC0000000000355700082DE9F04716469846A0
:1059EC008A680B6907469342B8BF1346336091F837
:1059FC0043200C46DDF820900AB101333360236854
:105A0C00990642BF336802333360256815F00605EA
:105A1C0006D104F1190AE36832689B1AAB422BDCFD
:105A2C0094F843302268003B18BF0123920630D40F
:105A3C004146384604F14302C847013023D023685D
:105A4C00226903F00603042B14BF002533684FF0C2
:105A5C00000608BFE56804F11A0408BFED1A54F8F3
:105A6C00123C08BF25EAE5759342C4BF9B1AED189A
:105A7C00B5421AD1002008E001235246414638466F
:105A8C00C847013003D14FF0FF30BDE8F087013536
:105A9C00C1E73020E11881F843005A1C94F84510F6
:105AAC002244023382F84310C2E7012322464146C6
:105ABC003846C8470130E6D00136D9E72DE9FF4713
:105ACC000F7E9146782F80460C469A460C9E01F12B
